{
  "contractName": "Charger",
  "abi": [
    {
      "constant": true,
      "inputs": [],
      "name": "name",
      "outputs": [
        {
          "name": "",
          "type": "string"
        }
      ],
      "payable": false,
      "stateMutability": "view",
      "type": "function"
    },
    {
      "constant": true,
      "inputs": [],
      "name": "erc20Token",
      "outputs": [
        {
          "name": "",
          "type": "address"
        }
      ],
      "payable": false,
      "stateMutability": "view",
      "type": "function"
    },
    {
      "constant": true,
      "inputs": [],
      "name": "owner",
      "outputs": [
        {
          "name": "",
          "type": "address"
        }
      ],
      "payable": false,
      "stateMutability": "view",
      "type": "function"
    },
    {
      "constant": true,
      "inputs": [],
      "name": "price",
      "outputs": [
        {
          "name": "",
          "type": "uint256"
        }
      ],
      "payable": false,
      "stateMutability": "view",
      "type": "function"
    },
    {
      "constant": true,
      "inputs": [],
      "name": "securityToken",
      "outputs": [
        {
          "name": "",
          "type": "address"
        }
      ],
      "payable": false,
      "stateMutability": "view",
      "type": "function"
    },
    {
      "constant": true,
      "inputs": [
        {
          "name": "",
          "type": "uint256"
        }
      ],
      "name": "prices",
      "outputs": [
        {
          "name": "from",
          "type": "string"
        },
        {
          "name": "to",
          "type": "string"
        },
        {
          "name": "amount",
          "type": "uint256"
        }
      ],
      "payable": false,
      "stateMutability": "view",
      "type": "function"
    },
    {
      "constant": true,
      "inputs": [],
      "name": "geo",
      "outputs": [
        {
          "name": "",
          "type": "string"
        }
      ],
      "payable": false,
      "stateMutability": "view",
      "type": "function"
    },
    {
      "constant": true,
      "inputs": [],
      "name": "currentStatus",
      "outputs": [
        {
          "name": "",
          "type": "uint8"
        }
      ],
      "payable": false,
      "stateMutability": "view",
      "type": "function"
    },
    {
      "inputs": [
        {
          "name": "_geo",
          "type": "string"
        },
        {
          "name": "_name",
          "type": "string"
        },
        {
          "name": "_owner",
          "type": "address"
        },
        {
          "name": "_erc20Addr",
          "type": "address"
        }
      ],
      "payable": false,
      "stateMutability": "nonpayable",
      "type": "constructor"
    },
    {
      "constant": false,
      "inputs": [],
      "name": "startCharging",
      "outputs": [],
      "payable": true,
      "stateMutability": "payable",
      "type": "function"
    },
    {
      "constant": false,
      "inputs": [
        {
          "name": "_from",
          "type": "string"
        },
        {
          "name": "_to",
          "type": "string"
        },
        {
          "name": "_newRate",
          "type": "uint256"
        }
      ],
      "name": "addRate",
      "outputs": [],
      "payable": false,
      "stateMutability": "nonpayable",
      "type": "function"
    },
    {
      "constant": true,
      "inputs": [],
      "name": "pricesLength",
      "outputs": [
        {
          "name": "",
          "type": "uint256"
        }
      ],
      "payable": false,
      "stateMutability": "view",
      "type": "function"
    },
    {
      "constant": true,
      "inputs": [],
      "name": "reserve",
      "outputs": [
        {
          "name": "",
          "type": "uint256"
        }
      ],
      "payable": false,
      "stateMutability": "view",
      "type": "function"
    }
  ],
  "bytecode": "0x608060405260966005553480156200001657600080fd5b50604051620010cb380380620010cb833981018060405260808110156200003c57600080fd5b8101908080516401000000008111156200005557600080fd5b828101905060208101848111156200006c57600080fd5b81518560018202830111640100000000821117156200008a57600080fd5b50509291906020018051640100000000811115620000a757600080fd5b82810190506020810184811115620000be57600080fd5b8151856001820283011164010000000082111715620000dc57600080fd5b50509291906020018051906020019092919080519060200190929190505050836000908051906020019062000113929190620002eb565b5082600190805190602001906200012c929190620002eb565b5081600260006101000a81548173ffffffffffffffffffffffffffffffffffffffff021916908373ffffffffffffffffffffffffffffffffffffffff16021790555080600360006101000a81548173ffffffffffffffffffffffffffffffffffffffff021916908373ffffffffffffffffffffffffffffffffffffffff1602179055506002600960006101000a81548160ff02191690836002811115620001cf57fe5b0217905550620001de62000372565b6060604051908101604052806040805190810160405280600481526020017f383a30300000000000000000000000000000000000000000000000000000000081525081526020016040805190810160405280600581526020017f32333a3030000000000000000000000000000000000000000000000000000000815250815260200160968152509050600681908060018154018082558091505090600182039060005260206000209060030201600090919290919091506000820151816000019080519060200190620002b392919062000394565b506020820151816001019080519060200190620002d292919062000394565b5060408201518160020155505050505050505062000443565b828054600181600116156101000203166002900490600052602060002090601f016020900481019282601f106200032e57805160ff19168380011785556200035f565b828001600101855582156200035f579182015b828111156200035e57825182559160200191906001019062000341565b5b5090506200036e91906200041b565b5090565b6060604051908101604052806060815260200160608152602001600081525090565b828054600181600116156101000203166002900490600052602060002090601f016020900481019282601f10620003d757805160ff191683800117855562000408565b8280016001018555821562000408579182015b8281111562000407578251825591602001919060010190620003ea565b5b5090506200041791906200041b565b5090565b6200044091905b808211156200043c57600081600090555060010162000422565b5090565b90565b610c7880620004536000396000f3fe6080604052600436106100c4576000357c010000000000000000000000000000000000000000000000000000000090048063b84dfbd211610081578063b84dfbd214610267578063bc31c1c1146102be578063cd3293de146103e5578063d944e6a314610410578063eed63d60146104a0578063ef8a923514610609576100c4565b806306fdde03146100c957806357bb32bd146101595780638a13eea7146101845780638caba7b7146101db5780638da5cb5b146101e5578063a035b1fe1461023c575b600080fd5b3480156100d557600080fd5b506100de610642565b6040518080602001828103825283818151815260200191508051906020019080838360005b8381101561011e578082015181840152602081019050610103565b50505050905090810190601f16801561014b5780820380516001836020036101000a031916815260200191505b509250505060405180910390f35b34801561016557600080fd5b5061016e6106e0565b6040518082815260200191505060405180910390f35b34801561019057600080fd5b506101996106ed565b604051808273ffffffffffffffffffffffffffffffffffffffff1673ffffffffffffffffffffffffffffffffffffffff16815260200191505060405180910390f35b6101e3610713565b005b3480156101f157600080fd5b506101fa610870565b604051808273ffffffffffffffffffffffffffffffffffffffff1673ffffffffffffffffffffffffffffffffffffffff16815260200191505060405180910390f35b34801561024857600080fd5b50610251610896565b6040518082815260200191505060405180910390f35b34801561027357600080fd5b5061027c61089c565b604051808273ffffffffffffffffffffffffffffffffffffffff1673ffffffffffffffffffffffffffffffffffffffff16815260200191505060405180910390f35b3480156102ca57600080fd5b506102f7600480360360208110156102e157600080fd5b81019080803590602001909291905050506108c2565b604051808060200180602001848152602001838103835286818151815260200191508051906020019080838360005b83811015610341578082015181840152602081019050610326565b50505050905090810190601f16801561036e5780820380516001836020036101000a031916815260200191505b50838103825285818151815260200191508051906020019080838360005b838110156103a757808201518184015260208101905061038c565b50505050905090810190601f1680156103d45780820380516001836020036101000a031916815260200191505b509550505050505060405180910390f35b3480156103f157600080fd5b506103fa610a2b565b6040518082815260200191505060405180910390f35b34801561041c57600080fd5b50610425610a33565b6040518080602001828103825283818151815260200191508051906020019080838360005b8381101561046557808201518184015260208101905061044a565b50505050905090810190601f1680156104925780820380516001836020036101000a031916815260200191505b509250505060405180910390f35b3480156104ac57600080fd5b50610607600480360360608110156104c357600080fd5b81019080803590602001906401000000008111156104e057600080fd5b8201836020820111156104f257600080fd5b8035906020019184600183028401116401000000008311171561051457600080fd5b91908080601f016020809104026020016040519081016040528093929190818152602001838380828437600081840152601f19601f8201169050808301925050505050505091929192908035906020019064010000000081111561057757600080fd5b82018360208201111561058957600080fd5b803590602001918460018302840111640100000000831117156105ab57600080fd5b91908080601f016020809104026020016040519081016040528093929190818152602001838380828437600081840152601f19601f82011690508083019250505050505050919291929080359060200190929190505050610ad1565b005b34801561061557600080fd5b5061061e610b72565b6040518082600281111561062e57fe5b60ff16815260200191505060405180910390f35b60018054600181600116156101000203166002900480601f0160208091040260200160405190810160405280929190818152602001828054600181600116156101000203166002900480156106d85780601f106106ad576101008083540402835291602001916106d8565b820191906000526020600020905b8154815290600101906020018083116106bb57829003601f168201915b505050505081565b6000600680549050905090565b600360009054906101000a900473ffffffffffffffffffffffffffffffffffffffff1681565b600360009054906101000a900473ffffffffffffffffffffffffffffffffffffffff1673ffffffffffffffffffffffffffffffffffffffff166323b872dd33306005546040518463ffffffff167c0100000000000000000000000000000000000000000000000000000000028152600401808473ffffffffffffffffffffffffffffffffffffffff1673ffffffffffffffffffffffffffffffffffffffff1681526020018373ffffffffffffffffffffffffffffffffffffffff1673ffffffffffffffffffffffffffffffffffffffff1681526020018281526020019350505050602060405180830381600087803b15801561080e57600080fd5b505af1158015610822573d6000803e3d6000fd5b505050506040513d602081101561083857600080fd5b8101908080519060200190929190505050506000600960006101000a81548160ff0219169083600281111561086957fe5b0217905550565b600260009054906101000a900473ffffffffffffffffffffffffffffffffffffffff1681565b60055481565b600460009054906101000a900473ffffffffffffffffffffffffffffffffffffffff1681565b6006818154811015156108d157fe5b9060005260206000209060030201600091509050806000018054600181600116156101000203166002900480601f01602080910402602001604051908101604052809291908181526020018280546001816001161561010002031660029004801561097d5780601f106109525761010080835404028352916020019161097d565b820191906000526020600020905b81548152906001019060200180831161096057829003601f168201915b505050505090806001018054600181600116156101000203166002900480601f016020809104026020016040519081016040528092919081815260200182805460018160011615610100020316600290048015610a1b5780601f106109f057610100808354040283529160200191610a1b565b820191906000526020600020905b8154815290600101906020018083116109fe57829003601f168201915b5050505050908060020154905083565b600042905090565b60008054600181600116156101000203166002900480601f016020809104026020016040519081016040528092919081815260200182805460018160011615610100020316600290048015610ac95780601f10610a9e57610100808354040283529160200191610ac9565b820191906000526020600020905b815481529060010190602001808311610aac57829003601f168201915b505050505081565b610ad9610b85565b606060405190810160405280858152602001848152602001838152509050600681908060018154018082558091505090600182039060005260206000209060030201600090919290919091506000820151816000019080519060200190610b41929190610ba7565b506020820151816001019080519060200190610b5e929190610ba7565b506040820151816002015550505050505050565b600960009054906101000a900460ff1681565b6060604051908101604052806060815260200160608152602001600081525090565b828054600181600116156101000203166002900490600052602060002090601f016020900481019282601f10610be857805160ff1916838001178555610c16565b82800160010185558215610c16579182015b82811115610c15578251825591602001919060010190610bfa565b5b509050610c239190610c27565b5090565b610c4991905b80821115610c45576000816000905550600101610c2d565b5090565b9056fea165627a7a72305820510e692f6ba130373a2b590474cea8856632875d5f9b8b7cda74cf379f1555630029",
  "source": "pragma solidity >=0.5.4 <0.6.0;\nimport \"openzeppelin-solidity/contracts/token/ERC20/IERC20.sol\";\nimport \"openzeppelin-solidity/contracts/token/ERC721/IERC721.sol\";\n\n\ncontract Charger {\n\n    string public geo;\n    string public name;\n    address public owner; // ??? Or taken from \"Ownable\" or no address at all\n\n    IERC20 public erc20Token;\n    IERC721 public securityToken;\n    uint public price = 150;\n\n    struct priceTag {\n        string from;\n        string to;\n        uint256 amount; \n    }\n\n    priceTag[] public prices;\n\n    // Just \n    mapping(address => uint256) reservations;\n    uint256[] reservationsTime;\n\n    enum Status {\n      Charging,\n      Waiting,\n      Free\n    }\n\n    Status public currentStatus;\n\n    // график зарезервированных броней на зарядку (интервалы занятого время)\n    // метод бронирования (платный)\n\n    constructor(string memory _geo, string memory _name, address _owner, address _erc20Addr/*, address _erc721Addr*/) public {\n        geo = _geo;\n        name = _name;\n        owner = _owner;\n        erc20Token = IERC20(_erc20Addr);\n        // securityToken = IERC721(_erc721Addr);\n        currentStatus = Status.Free;\n\n        priceTag memory _price = priceTag({\n            from: \"8:00\",\n            to: \"23:00\",\n            amount: 150\n        });\n        prices.push(_price);\n    }\n\n    function startCharging() public payable {\n        // require(securityToken.balanceOf(msg.sender) > 1, \"You don't have security token\");\n        // There's got to be approve from client on tokens\n        erc20Token.transferFrom(msg.sender,address(this),price);\n        currentStatus = Status.Charging;\n\n    }\n\n    function addRate(string memory _from, string memory _to, uint256 _newRate) public {\n        priceTag memory _price = priceTag({\n            from: _from,\n            to: _to,\n            amount: _newRate\n        });\n        prices.push(_price);\n    }\n\n\n    // function showPrices() public view returns(string[] memory,string[] memory,uint[] memory){\n    //     string[] memory froms = new string[](prices.length);\n    //     string[] memory tos = new string[](prices.length);\n    //     uint[] memory amounts = new uint[](prices.length);\n    //     for (uint24 i = 0; i < prices.length; i++) {\n    //         froms[i] = prices[i].from;\n    //         tos[i] = prices[i].to;\n    //         amounts[i] = prices[i].amount;\n    //     }\n    //     return (froms,tos,amounts);\n    // }\n\n    function pricesLength() public view returns(uint) {\n        return prices.length;\n    }\n\n    function reserve() public view returns(uint) {\n        return block.timestamp;\n    } \n}\n",
  "sourcePath": "/home/andrew/Projects/truffleTest/recharge/contracts/Charger.sol",
  "compiler": {
    "name": "solc",
    "version": "0.5.4+commit.9549d8ff.Emscripten.clang"
  },
  "schemaVersion": "3.0.2",
  "updatedAt": "2019-03-13T11:28:29.461Z",
  "devdoc": {
    "methods": {}
  },
  "userdoc": {
    "methods": {}
  }
}