{
  "contractName": "Factory",
  "abi": [
    {
      "constant": true,
      "inputs": [],
      "name": "register",
      "outputs": [
        {
          "name": "",
          "type": "address"
        }
      ],
      "payable": false,
      "stateMutability": "view",
      "type": "function",
      "signature": "0x1aa3a008"
    },
    {
      "inputs": [
        {
          "name": "_regAddress",
          "type": "address"
        }
      ],
      "payable": false,
      "stateMutability": "nonpayable",
      "type": "constructor",
      "signature": "constructor"
    },
    {
      "constant": false,
      "inputs": [
        {
          "name": "_geo",
          "type": "string"
        },
        {
          "name": "_name",
          "type": "string"
        },
        {
          "name": "_owner",
          "type": "address"
        }
      ],
      "name": "createCharger",
      "outputs": [],
      "payable": false,
      "stateMutability": "nonpayable",
      "type": "function",
      "signature": "0x36f79c1c"
    }
  ],
  "bytecode": "0x608060405234801561001057600080fd5b5060405160208061086f8339810180604052602081101561003057600080fd5b8101908080519060200190929190505050806000806101000a81548173ffffffffffffffffffffffffffffffffffffffff021916908373ffffffffffffffffffffffffffffffffffffffff160217905550506107de806100916000396000f3fe608060405234801561001057600080fd5b5060043610610053576000357c0100000000000000000000000000000000000000000000000000000000900480631aa3a0081461005857806336f79c1c146100a2575b600080fd5b610060610214565b604051808273ffffffffffffffffffffffffffffffffffffffff1673ffffffffffffffffffffffffffffffffffffffff16815260200191505060405180910390f35b610212600480360360608110156100b857600080fd5b81019080803590602001906401000000008111156100d557600080fd5b8201836020820111156100e757600080fd5b8035906020019184600183028401116401000000008311171561010957600080fd5b91908080601f016020809104026020016040519081016040528093929190818152602001838380828437600081840152601f19601f8201169050808301925050505050505091929192908035906020019064010000000081111561016c57600080fd5b82018360208201111561017e57600080fd5b803590602001918460018302840111640100000000831117156101a057600080fd5b91908080601f016020809104026020016040519081016040528093929190818152602001838380828437600081840152601f19601f820116905080830192505050505050509192919290803573ffffffffffffffffffffffffffffffffffffffff169060200190929190505050610239565b005b6000809054906101000a900473ffffffffffffffffffffffffffffffffffffffff1681565b600083838360405161024a90610451565b8080602001806020018473ffffffffffffffffffffffffffffffffffffffff1673ffffffffffffffffffffffffffffffffffffffff168152602001838103835286818151815260200191508051906020019080838360005b838110156102bd5780820151818401526020810190506102a2565b50505050905090810190601f1680156102ea5780820380516001836020036101000a031916815260200191505b50838103825285818151815260200191508051906020019080838360005b83811015610323578082015181840152602081019050610308565b50505050905090810190601f1680156103505780820380516001836020036101000a031916815260200191505b5095505050505050604051809103906000f080158015610374573d6000803e3d6000fd5b5090506000809054906101000a900473ffffffffffffffffffffffffffffffffffffffff1673ffffffffffffffffffffffffffffffffffffffff16634420e486826040518263ffffffff167c0100000000000000000000000000000000000000000000000000000000028152600401808273ffffffffffffffffffffffffffffffffffffffff1673ffffffffffffffffffffffffffffffffffffffff168152602001915050600060405180830381600087803b15801561043357600080fd5b505af1158015610447573d6000803e3d6000fd5b5050505050505050565b6103548061045f8339019056fe608060405234801561001057600080fd5b506040516103543803806103548339810180604052606081101561003357600080fd5b81019080805164010000000081111561004b57600080fd5b8281019050602081018481111561006157600080fd5b815185600182028301116401000000008211171561007e57600080fd5b5050929190602001805164010000000081111561009a57600080fd5b828101905060208101848111156100b057600080fd5b81518560018202830111640100000000821117156100cd57600080fd5b50509291906020018051906020019092919050505082600090805190602001906100f892919061017d565b50816001908051906020019061010f92919061017d565b5080600260006101000a81548173ffffffffffffffffffffffffffffffffffffffff021916908373ffffffffffffffffffffffffffffffffffffffff1602179055506002600560006101000a81548160ff0219169083600281111561017057fe5b0217905550505050610222565b828054600181600116156101000203166002900490600052602060002090601f016020900481019282601f106101be57805160ff19168380011785556101ec565b828001600101855582156101ec579182015b828111156101eb5782518255916020019190600101906101d0565b5b5090506101f991906101fd565b5090565b61021f91905b8082111561021b576000816000905550600101610203565b5090565b90565b610123806102316000396000f3fe608060405260043610604d576000357c0100000000000000000000000000000000000000000000000000000000900480638caba7b7146052578063cd3293de14605a578063ef8a9235146082575b600080fd5b605860b7565b005b348015606557600080fd5b50606c60dc565b6040518082815260200191505060405180910390f35b348015608d57600080fd5b50609460e4565b6040518082600281111560a357fe5b60ff16815260200191505060405180910390f35b6000600560006101000a81548160ff0219169083600281111560d557fe5b0217905550565b600042905090565b600560009054906101000a900460ff168156fea165627a7a723058200ae143b9f8fbd13b4baed6cd83d9372bf90a37670e666e40f5127442ca6986bf0029a165627a7a7230582052e136ebf321d10cce6b06341117d6c6f734f00aff128803daa9c29b74c147910029",
  "source": "pragma solidity >=0.5.4 <0.6.0;\n\nimport \"./Charger.sol\";\nimport \"./Register.sol\";\n\ncontract Factory {\n    //maybe change it to interfaces\n    Register public register;\n\n    constructor(address _regAddress) public {\n        // here store the owner(s) \n        register = Register(_regAddress);\n    }\n\n    function createCharger(string memory _geo, string memory _name, address _owner) public {\n        // That's not it, also need to manage owners,\n        // balances and etc.\n        Charger charger = new Charger(_geo,_name,_owner);\n\n        register.register(address(charger));\n    }\n}\n",
  "sourcePath": "/home/andrew/Projects/truffleTest/recharge/contracts/Factory.sol",
  "compiler": {
    "name": "solc",
    "version": "0.5.4+commit.9549d8ff.Emscripten.clang"
  },
  "schemaVersion": "3.0.2",
  "updatedAt": "2019-03-12T12:56:23.507Z",
  "devdoc": {
    "methods": {}
  },
  "userdoc": {
    "methods": {}
  }
}