{
  "contractName": "Register",
  "abi": [
    {
      "constant": true,
      "inputs": [
        {
          "name": "",
          "type": "uint256"
        }
      ],
      "name": "chargers",
      "outputs": [
        {
          "name": "",
          "type": "address"
        }
      ],
      "payable": false,
      "stateMutability": "view",
      "type": "function",
      "signature": "0xe7469452"
    },
    {
      "anonymous": false,
      "inputs": [
        {
          "indexed": false,
          "name": "_charger",
          "type": "address"
        }
      ],
      "name": "ChargerRegistered",
      "type": "event",
      "signature": "0x4b3297fb854fbaf35f02ea9c355b986d0da6d8dbd110a97c4030babe021be11d"
    },
    {
      "constant": false,
      "inputs": [
        {
          "name": "_charger",
          "type": "address"
        }
      ],
      "name": "register",
      "outputs": [],
      "payable": false,
      "stateMutability": "nonpayable",
      "type": "function",
      "signature": "0x4420e486"
    },
    {
      "constant": true,
      "inputs": [],
      "name": "showFreeChargers",
      "outputs": [
        {
          "name": "",
          "type": "address[]"
        }
      ],
      "payable": false,
      "stateMutability": "view",
      "type": "function",
      "signature": "0x33aba458"
    },
    {
      "constant": true,
      "inputs": [],
      "name": "showChargers",
      "outputs": [
        {
          "name": "",
          "type": "address[]"
        }
      ],
      "payable": false,
      "stateMutability": "view",
      "type": "function",
      "signature": "0xfa208399"
    }
  ],
  "bytecode": "0x608060405234801561001057600080fd5b506106cb806100206000396000f3fe608060405234801561001057600080fd5b5060043610610069576000357c01000000000000000000000000000000000000000000000000000000009004806333aba4581461006e5780634420e486146100cd578063e746945214610111578063fa2083991461017f575b600080fd5b6100766101de565b6040518080602001828103825283818151815260200191508051906020019060200280838360005b838110156100b957808201518184015260208101905061009e565b505050509050019250505060405180910390f35b61010f600480360360208110156100e357600080fd5b81019080803573ffffffffffffffffffffffffffffffffffffffff169060200190929190505050610507565b005b61013d6004803603602081101561012757600080fd5b81019080803590602001909291905050506105d3565b604051808273ffffffffffffffffffffffffffffffffffffffff1673ffffffffffffffffffffffffffffffffffffffff16815260200191505060405180910390f35b610187610611565b6040518080602001828103825283818151815260200191508051906020019060200280838360005b838110156101ca5780820151818401526020810190506101af565b505050509050019250505060405180910390f35b60606000809050606060008054905060405190808252806020026020018201604052801561021b5781602001602082028038833980820191505090505b50905060008090505b6000805490508162ffffff1610156103d7576000808262ffffff1681548110151561024b57fe5b9060005260206000200160009054906101000a900473ffffffffffffffffffffffffffffffffffffffff16905060028081111561028457fe5b8173ffffffffffffffffffffffffffffffffffffffff1663ef8a92356040518163ffffffff167c010000000000000000000000000000000000000000000000000000000002815260040160206040518083038186803b1580156102e657600080fd5b505afa1580156102fa573d6000803e3d6000fd5b505050506040513d602081101561031057600080fd5b8101908080519060200190929190505050600281111561032c57fe5b14156103c95760008262ffffff1681548110151561034657fe5b9060005260206000200160009054906101000a900473ffffffffffffffffffffffffffffffffffffffff16838562ffffff1681518110151561038457fe5b9060200190602002019073ffffffffffffffffffffffffffffffffffffffff16908173ffffffffffffffffffffffffffffffffffffffff168152505083806001019450505b508080600101915050610224565b5060608262ffffff1660405190808252806020026020018201604052801561040e5781602001602082028038833980820191505090505b5090506000925060008090505b82518162ffffff1610156104fd57600073ffffffffffffffffffffffffffffffffffffffff16838262ffffff1681518110151561045457fe5b9060200190602002015173ffffffffffffffffffffffffffffffffffffffff161415156104f057828162ffffff1681518110151561048e57fe5b90602001906020020151828562ffffff168151811015156104ab57fe5b9060200190602002019073ffffffffffffffffffffffffffffffffffffffff16908173ffffffffffffffffffffffffffffffffffffffff168152505083806001019450505b808060010191505061041b565b5080935050505090565b60008190806001815401808255809150509060018203906000526020600020016000909192909190916101000a81548173ffffffffffffffffffffffffffffffffffffffff021916908373ffffffffffffffffffffffffffffffffffffffff160217905550507f4b3297fb854fbaf35f02ea9c355b986d0da6d8dbd110a97c4030babe021be11d81604051808273ffffffffffffffffffffffffffffffffffffffff1673ffffffffffffffffffffffffffffffffffffffff16815260200191505060405180910390a150565b6000818154811015156105e257fe5b906000526020600020016000915054906101000a900473ffffffffffffffffffffffffffffffffffffffff1681565b6060600080548060200260200160405190810160405280929190818152602001828054801561069557602002820191906000526020600020905b8160009054906101000a900473ffffffffffffffffffffffffffffffffffffffff1673ffffffffffffffffffffffffffffffffffffffff168152602001906001019080831161064b575b505050505090509056fea165627a7a72305820cdf90d2034fab08dadd4b2a870d0be1bf6655cac41442b57d79626055012054b0029",
  "source": "pragma solidity >=0.5.4 <0.6.0;\n\nimport \"./Charger.sol\";\n\ncontract Register {\n\n    address[] public chargers;\n\n    event ChargerRegistered(address _charger);\n    // Also may be implemented array with chargers whose owners lost\n    // their security tokens\n\n    // иметь полигон геолокации(пока необязательно)\n\n    function register(address _charger) public {\n        chargers.push(_charger);\n        emit ChargerRegistered(_charger);\n    }\n\n    function showFreeChargers() public view returns(address[] memory) {\n        uint24 cnt = 0;\n        address[] memory freeChargers = new address[](chargers.length);\n        for (uint24 i = 0; i < chargers.length; i++) {\n            Charger ch = Charger(chargers[i]);\n            if(ch.currentStatus() == Charger.Status.Free) {\n                freeChargers[cnt] = chargers[i];\n                cnt++;\n            }\n        }\n        address[] memory coolFreeChargers = new address[](cnt);\n        cnt = 0;\n        for (uint24 i = 0; i < freeChargers.length; i++) {\n            if(freeChargers[i] != address(0)) {\n                coolFreeChargers[cnt] = freeChargers[i];\n                cnt++;\n            }\n        }\n        return coolFreeChargers;\n    }\n\n    function showChargers() public view returns(address[] memory) {\n        return chargers;\n    }\n}\n",
  "sourcePath": "/home/andrew/Projects/truffleTest/recharge/contracts/Register.sol",
  "compiler": {
    "name": "solc",
    "version": "0.5.4+commit.9549d8ff.Emscripten.clang"
  },
  "schemaVersion": "3.0.2",
  "updatedAt": "2019-03-13T11:33:16.766Z",
  "devdoc": {
    "methods": {}
  },
  "userdoc": {
    "methods": {}
  }
}